:020000040800F2
:1000000098060020A10100088D1C00081F17000899
:10001000891C000805150008852200080000000062
:10002000000000000000000000000000911D00081A
:100030000915000800000000151D0008A51E000895
:10004000BB010008BB010008BB010008BB010008A0
:10005000BB010008BB010008BB010008BB01000890
:10006000BB010008BB010008BB010008BB01000880
:10007000BB010008BB010008BB010008BB01000870
:10008000BB010008BB010008BB010008BB01000860
:10009000BB010008BB010008BB010008BB01000850
:1000A000BB010008BB010008BB010008BB01000840
:1000B000BB010008091F0008BB010008BB010008C4
:1000C000BB010008BB010008BB010008BB01000820
:1000D000BB010008BB010008BB010008BB01000810
:1000E000BB010008BB010008BB01000800F002F8DA
:1000F00000F047F80AA090E8000C82448344AAF17B
:100100000107DA4501D100F03CF8AFF2090EBAE878
:100110000F0013F0010F18BFFB1A43F0010318473B
:10012000A8310000C8310000103A24BF78C878C157
:10013000FAD8520724BF30C830C144BF04680C60ED
:10014000704700000023002400250026103A28BF35
:1001500078C1FBD8520728BF30C148BF0B60704739
:10016000662903F06480002070471FB500F004FB8F
:1001700004000020002102F03DFBE0601FBD10B52F
:1001800010BD00F0F9FB1146FFF7EFFF02F052FA45
:1001900000F017FC03B4FFF7F2FF03BC00F05AFCB9
:1001A0000948804709480047FEE7FEE7FEE7FEE70B
:1001B000FEE7FEE7FEE7FEE7FEE7FEE70448054947
:1001C000054A064B70470000A91E0008ED00000814
:1001D0009800002098060020980200209802002035
:1001E0000FB41CB5074B06AA7B44694600900598DE
:1001F00000F0A9FA0020694600F0B8FA1CBC5DF8CE
:1002000014FB0000810500002DE9F0474FF0000AC3
:1002100089460446C0F820A02046E16888470028A7
:1002200076D0252806D0D4E901219047206A401CC9
:100230002062F1E7E168204600258847C4F81CA049
:1002400006460027C4F818A02A2E09D0304602F02E
:100250002FF838B304EB8708303EC8F8186019E06F
:1002600059F8041B204604EB87029161E168884736
:10027000012F064618D1E069002820DA25F0200574
:100280001DE0D8F8180000EB800006EB4000303885
:10029000C8F818002046E1688847064602F008F8CA
:1002A0000028EED1012F0AD02E2E08D12046E16879
:1002B00088477F1C0646022F45F02005C4DBA06955
:1002C000002803DA404245F00105A061E80701D0AB
:1002D00025F01005B6B1A6F14100192802D8203644
:1002E00045F400654A463146204625604D46FFF7F5
:1002F00037FF58B1012806D0ED1D25F0070000F1A9
:10030000080989E704E005F1040985E730468AE732
:10031000206ABDE8F08770477047704770472DE945
:10032000FF4F0C461E464FF0FF378BB0D2E900015D
:10033000DDF860800A908A46C1F30A5505B93D464A
:10034000002108464FF00000BAF1000F00F4400011
:1003500005DA00EB80004FF4400101EA50004FEA5B
:100360009059B9F1010F00DDB9460A9850EA4A00E8
:100370000ED044F61050A5F2FF3545432F14B8F1C6
:10038000000F1ED07542291E1EDDC9F100021CE0BF
:10039000B8F1010F4FF0000001D0302103E0F2432B
:1003A00005E02154401CB042FBDB30460022002116
:1003B00021540B99C1F80880C1E900200FB0BDE8B5
:1003C000F08FBD1B6D1CDEE74A4600DA694206A8C5
:1003D00000F05CFA06AB93E8070003AB83E8070084
:1003E00050460A9900F03DFB8DE80700A0F500504B
:1003F0001F3800900398002D0ADD42F21F014A4683
:100400000844002303A90390684600F0A6FD09E014
:10041000A0F500504A461F38002303A90390684600
:1004200000F0B0FD8DE807000004000C03D04FF091
:10043000FF30410800E01046B8F1000F03D0002261
:10044000009215461EE0751E05D400F099F9303271
:1004500062556D1EF9D5B3460122084302D0002231
:100460007F1C04E02078302801D100227F1E002A62
:10047000099784D01DE0112D07DA00F081F93032A0
:1004800062556D1C50EA0102F5D1084302D0009874
:10049000C8B10EE00021681E05E0235C625C635475
:1004A0002254401E491C8142F7DBAB46A81B401E6C
:1004B0000990002004F80B000B98099AC0F80880F6
:1004C000C0E9002B7AE711264FF0000857E72DE925
:1004D000F04F88460446D21D22F0070191B0D1E9C1
:1004E0000001CDE90A0101F0CFFE02460B98C00FD2
:1004F00001D02D2007E02068810701D52B2002E0E4
:10050000202101EAC000032A099001D0072A05DB57
:1005100003464146204600F079F90BE12078800639
:1005200001D5E06900E00620B8F1650F814606D0EC
:10053000B8F1660F18D0B8F1670F70D131E0002024
:10054000B9F1110F009001DB112301E009F1010362
:100550000AAA01A90CA8FFF7E2FEDDE90C7000264B
:1005600009F10105834647E001204B4600904FF01A
:1005700000470AAA01A90CA8FFF7D1FEDDE90DB0DA
:100580000C995D46002610B909F101000D18B9EB70
:10059000050003D4C0F1FF3609F10105A5EB090000
:1005A0002BE0B9F1010F01DA4FF001090020B9F198
:1005B000110F0090484601DD112300E003460AAA0E
:1005C00001A90CA8FFF7ABFEDDE90C704D46002633
:1005D0008346207800070AD4AB4500DA5D4601A8BF
:1005E000012D04DD411911F8011C302907D04F45B8
:1005F00002DA17F1040F04DA012082460FE06D1EC3
:10060000EEE7002F02DCED1B3E4403E0781CA8421D
:1006100000DD7D1CB81B00F1010A4FF00047207877
:10062000000703D4AA4501DB4FF0FF3A0021B7F1E0
:10063000004F0DF143088DF8431024D002202B23E6
:10064000002F01DA7F422D230A21021EA0F10100B2
:1006500000DC5FB197FBF1FC97FBF1F201FB1C7C26
:1006600017460CF1300C08F801CDEEE7A8F10100B7
:1006700003702188090501D5452100E06521A0F11D
:10068000010800F8011C09980FA9A1EB0807FF1D3C
:1006900000B10120411901EBEA70A1693844081A40
:1006A000401EA0612078C00602D42046AFF300802F
:1006B000099828B1D4E901219047206A401C2062A2
:1006C0002078C00622D52046AFF300801EE0002E21
:1006D00004DBB34502DD01A8805D00E03020D4E9F1
:1006E00001219047206A401C2062761CAAF101007B
:1006F0005FEA000A0AD100F03FF8C0680168405C78
:10070000D4E901219047206A401C2062281EA5F1EF
:100710000105DCDC07E0D4E9012118F8010B904762
:10072000206A401C2062381EA7F10107F3DC204636
:10073000AFF30080032011B041E6000001694A1CBC
:1007400002610878704700B58FB0CDE90131002112
:10075000059105497944CDE9031011466846FFF734
:1007600053FD0FB000BD0000E5FFFFFF0A6802F86F
:10077000010B0A60704700000048704758000020D5
:1007800030B5B0F10A024FEA900E71F100034EEA63
:10079000817EB0EB0E0061EB91014FEA101E4EEA34
:1007A000017E10EB0E0041EB11114FEA102E4EEAC4
:1007B000016E10EB0E0041EB11214FEA104E4EEA94
:1007C000014E10EB0E0041EB1141401841F10001C8
:1007D0004FEAD00040EA41704FEAD10110EB8005AA
:1007E0004FEA810444EA907444EB01046D1944EB30
:1007F0000404521BA3414FF0000348BF0A3200D546
:1008000030BD401C41F1000130BD00002DE9F04138
:100810001F46044603260168072A01F4006004DB32
:1008200008B116A505E016A503E008B115A500E07E
:1008300015A521F010002060A069C01EA0610FB1B5
:10084000401EA0612046AFF300804FB1D4E90121E2
:1008500038469047206A401C2062C01C206206E097
:10086000206AFAE7D4E9012115F8010B9047761EBA
:10087000F8D22046AFF30080BDE8F0814E414E0033
:100880006E616E00494E4600696E66002DE9F047C4
:10089000814616468AB0354878440DC88DE80D006B
:1008A00032487844801C03AC0DC884E80D0041F642
:1008B0009B300844372190FBF1F290FBF1F5A5F154
:1008C000800501FB12041B3C02D56442012000E0BC
:1008D0000020DFF898A080460027FA44AAF1BE0A5B
:1008E0000EE0E0070AD03246684607EB47010123D5
:1008F0000AEB810100F046FB8DE8070064107F1CC5
:10090000002CEED1194F7F44AE3F19E0E80715D017
:1009100007EB04100DF1180A90E80E008AE80E00AB
:10092000C068F04201D1981908903246012306A907
:1009300003A800F027FB03AB83E807006D10641CDD
:10094000002DE3D14FF0010332466946B8F1000FA4
:1009500003A802D000F001FB01E000F013FBC9E99D
:100960000001C9F808200AB0BDE8F087142A000089
:1009700000487047380000207546FFF7F9FFAE4683
:1009800005006946534620F00700854618B020B59B
:10099000FFF714FCBDE820404FF000064FF00007C1
:1009A0004FF000084FF0000B21F00701AC46ACE817
:1009B000C009ACE8C009ACE8C009ACE8C0098D4684
:1009C000704710B50446AFF300802046BDE81040E4
:1009D000FFF7E0BB4FF0013C50F8042B51F8043B0B
:1009E0009A4221D1A2EB0C03934313EACC1317D103
:1009F00050F8042B51F8043B9A4215D1A2EB0C039A
:100A0000934313EACC130BD150F8042B51F8043B59
:100A10009A4209D1A2EB0C03934313EACC13DBD027
:100A20004FF00000704700BFD01A01BAB1FA81F14F
:100A300001F0180122FA01F0CB40C1F12001DBB234
:100A4000C0B2C01A2CFA01F3D11A914311EAC311B2
:100A5000E6D1704701491820ABBEFEE72600020030
:100A600070475FEA400C08BF91F0000F4FEA8C23FB
:100A70004FEAC12243EA51514FEA1C5018BF00F51A
:100A8000F0404FEA300018BF41F000415FEA6C5C73
:100A900000F02980BCF1FF3F08BF40F08040704764
:100AA000130C06BF12044FF0100C4FF0000C130E85
:100AB00004BF12020CF1080C130F04BF12010CF159
:100AC000040C930F04BF92000CF1020CD30F04BF6F
:100AD00052000CF1010C11464FF00002A0F11F0072
:100AE000A0EB0C00704711F0004F08BF704731F0C9
:100AF00000413FF4D5AF0B0C06BF09044FF0100CBA
:100B00004FF0000C0B0E04BF09020CF1080C0B0F88
:100B100004BF09010CF1040C8B0F04BF89000CF118
:100B2000020CCB0F04BF49000CF1010CCCF12003E7
:100B3000A0EB0C0022FA03F302FA0CF241EA0301E3
:100B400000F10100704720F07F4C80EA030023F0A1
:100B50007F47ACEB070303F57C5300F0004003F143
:100B6000FF032DE980494FEA154B09B44FEA1443BE
:100B700025EA0B4E24EA03480FF2042606EB13275E
:100B800049083E785FEA320203FB0667C7F50007B3
:100B900007FB06F64FEA54374FEAD64606F102063F
:100BA00007FB066CCCF1005C4FEA1C472CEA074CB3
:100BB00007FB06F40CFB06F504EB15464FEA961608
:100BC00034BF00204FF000404FEAD13706FB07FC4E
:100BD0004FEA1C4C0CFB0BF7D21B03FB0CF761EB31
:100BE00007010CFB0EF7B0EB074072EB17420CFB52
:100BF00008F734BFA2EB0742B2EB074261EB1741A3
:100C00004FEA0C444FEA910706FB07FC4FEA1C4CE5
:100C10000CFB0BF7B0EBC74072EB573203FB0CF742
:100C200034BFA2EBC742B2EBC74261EB57310CFBBA
:100C30000EF7B0EBC70072EB57720CFB08F734BF2E
:100C4000A2EBC702B2EBC70261EB5771039F4FEAF9
:100C5000816141EA921104EBCC044FEAD1374FEAAB
:100C6000826206FB07FC42EA90124FEA80604FEA7C
:100C70001C4C0CFB0BF7D21B03FB0CF761EB0701C1
:100C80000CFB0EF7B0EB074072EB17420CFB08F7BA
:100C900034BFA2EB0742B2EB074261EB17414FEAC8
:100CA0008C554FEA910704EB9C2406FB07FC4FEAA6
:100CB0001C4C0CFB0BF7B0EBC74072EB573203FB3D
:100CC0000CF734BFA2EBC742B2EBC74261EB57311E
:100CD0000CFB0EF7B0EBC70072EB57720CFB08F77A
:100CE00034BFA2EBC702B2EBC70261EB577115EB41
:100CF0004C254FEA816141EA92114FEA82624FEA44
:100D0000D13742EA901206FB07FC44F100044FEA97
:100D100080604FEA1C4C0CFB0BF7D21B03FB0CF75B
:100D200061EB07010CFB0EF7B0EB074072EB1742CB
:100D30000CFB08F734BFA2EB0742B2EB074261EBB2
:100D4000174115EB1C154FEA813141EA92414FEAF8
:100D5000823242EA90424FEA80304FEA0C7644F108
:100D6000000448EA03434EEA0B484FF0000EB2EB92
:100D7000080C71EB030724BF624639464EEB0E0E9A
:100D80004FF0000B0018524149414BEB0B0BB2EBFB
:100D9000080C71EB03077BF1000B24BF6246394658
:100DA0004EEB0E0E4FF0000B0018524149414BEB39
:100DB0000B0BB2EB080C71EB03077BF1000B24BFAC
:100DC000624639464EEB0E0E51EA020718BF46F056
:100DD000010616EB0E7655F1000254F1000103D521
:100DE000BDE88901BDE80088BDE88901BDE800488B
:100DF000B619524141EB0101A3F101037047808014
:100E00007F7E7D7C7B7A7978777676757473727164
:100E100071706F6E6E6D6C6C6B6A6A69686867661C
:100E200066656464636362616160605F5F5E5E5DAE
:100E30005D5C5C5B5B5A5A59595858575756565522
:100E400055555454535352525251515050504F4F84
:100E50004F4E4E4D4D4D4C4C4C4B4B4B4A4A4A49D4
:100E60004949484848474747474646464545454417
:100E70004444444343434342424242414141002BA4
:100E80009C4630D477002BD01CB54FEA370703B40B
:100E90004FF010004FF01001BAF1000F06D0BCF176
:100EA000000FDCBF40F0080040F008014FF00000E8
:100EB0000FBCBDE810400BF1010BBBF1010F08BFE7
:100EC0005FEA170722BF12F1010211F101014FF091
:100ED000004143F1000300F0004043EA0000704786
:100EE000F9D35708D0E746EA064613F1400F4FEA18
:100EF00016461FDD13F1200FDFBF16430A460021FF
:100F000020335B42BED0C3F1200746EA064602FA10
:100F100007F74FEA164646EA0706C3F1200722FA0A
:100F200003F201FA07F721FA03F14FF0000342EA56
:100F30000702A7E746EA020646EA06464FEA1646D1
:100F400046EA0106BCBF46EA0646360C4FF00003EF
:100F50004FF000024FF0000194E72DE9804C9A46D3
:100F6000934670B491E8380007C831EA400C48BF96
:100F700034EA430C03D5FFF7E6FDFFF780FFF0BC32
:100F8000BDE8008C2DE9804C9A46934670B491E8F8
:100F9000380007C810F0804F08BF13F0804F03D10E
:100FA00000F005F8FFF76BFFF0BCBDE8008C20F007
:100FB0007F4780EA030023F07F4C07EB0C03A3F587
:100FC0007C5300F00040A3F1FE0392F0000F00F00C
:100FD000B38095F0000F00F077802DE901494FEACA
:100FE00011404FEA144621EA004800FB06FC24EABF
:100FF000064708FB06F607FB08F800FB07F718EBA7
:1010000006484CEB164C4FEA124B18EB07484FEAD8
:1010100015464CEB174022EA0B4E0BFB06FC25EA6B
:1010200006470EFB06F607FB0EFE0BFB07F71EEB53
:10103000064E4CEB164C4FF000061EEB074E4CEBE9
:10104000174B18EB0B0840F1000018EB0E0B58EB98
:10105000000840F100008F1A4FF000013CBFC94367
:10106000661B14BFB5EB040C00213CBFC943F61B43
:101070004FEA17444EEA8E0E27EA04454FEA1C4712
:1010800004FB07622CEA074C05FB07F70CFB05F68F
:1010900004FB0CFC16EB074642EB174216EB0C4622
:1010A00042EB1C421BEB060658EB0202414146EAAA
:1010B0009E0601D5BDE80189B619524141EB0101F7
:1010C000A3F10103BDE801894FEA14454FEA114736
:1010D00024EA054621EA074C05FB07F406FB07F75F
:1010E0000CFB06F105FB0CFC11EB074144EB17442C
:1010F0004FEA124711EB0C4144EB1C4422EA074C27
:1011000005FB07F206FB07F70CFB06F605FB0CFCDC
:1011100016EB074642EB174216EB0C4642EB1C451A
:101120006A1854F1000148BF7047B619524141EBAB
:101130000101A3F10103704795F0000F37D04FEA8A
:1011400011424FEA144721EA024624EA074C02FB07
:1011500007F106FB07F70CFB06F402FB0CFC14EB93
:10116000074441EB17414FEA154714EB0C4441EBA0
:101170001C4125EA074C02FB07F506FB07F70CFBB1
:1011800006F602FB0CFC16EB074645EB174516EB83
:101190000C4645EB1C42121951F1000148BF704743
:1011A000B619524141EB0101A3F1010370474FEA27
:1011B00014454FEA114724EA054621EA074C05FB8E
:1011C00007F106FB07F70CFB06F24FF0000605FBE4
:1011D0000CFC12EB074241EB174112EB0C4251EBB6
:1011E0001C4148BF7047921841EB0101A3F1010374
:1011F000704721B1826842F00102826003E0826898
:1012000022F001028260704710B504461248844201
:1012100008D10121401500F0ABFD0021601500F060
:10122000A7FD17E00D48844208D10121001500F008
:101230009FFD0021201500F09BFD0BE00848844233
:1012400008D10121C80300F093FD00214FF40040B4
:1012500000F08EFD10BD0000002401400028014078
:10126000003C0140014600208A6802F004020AB1F5
:10127000012000E0002070470146C86C80B2704732
:101280000246002013680B400BB1012000E0002053
:101290007047014600208A6802F008020AB1012066
:1012A00000E000207047000030B502460020002317
:1012B00050680F4C20400D790C6844EA0524204307
:1012C000506090680B4C2040D1E902542C434D797A
:1012D00044EA450420439060D06A20F470000C7CFE
:1012E000641EE4B2234340EA0350D06230BD0000E4
:1012F000FFFEF0FFFDF7F1FFF0B504460D460020BC
:101300000021092D11DDE068A5F10A0606EB46076C
:10131000072606FA07F18843A5F10A0606EB4606FA
:1013200003FA06F10843E0600CE0206905EB45078D
:10133000072606FA07F1884305EB450603FA06F18E
:1013400008432061072A0FDA606B561E06EB8607FA
:101350001F2606FA07F18843561E06EB860605FA95
:1013600006F10843606322E00D2A0FDA206BD61FD6
:1013700006EB86071F2606FA07F18843D61F06EB01
:10138000860605FA06F10843206310E0E06AA2F140
:101390000D0606EB86071F2606FA07F18843A2F121
:1013A0000D0606EB860605FA06F10843E062F0BD7D
:1013B000816841F008018160704721B1826842F480
:1013C000A002826003E0826822F4A002826070477B
:1013D000816841F004018160704710B500F0CAF9DE
:1013E00010BD70B506460C46154608E03046721C26
:1013F00096B200F007F804F8010B681E85B2002DC4
:10140000F4D170BD70B50446002600F069FA254697
:10141000E11704EB11610912A02202EB4101C8B2ED
:1014200000F024FA00F0A8FAE11704EB11610912A8
:10143000A4EB0121C8B200F019FA00F09DFA00F007
:101440004FFAA12000F012FA00F096FA002000F006
:10145000D5F9064600F06AFA304670BD70B505460B
:101460000C46164606E02178284600F009F8681C6C
:1014700085B2641C301EA6F101018EB2F3D170BD9D
:1014800070B504460E4600F02BFA2546E11704EB32
:1014900011610912A02202EB4101C8B200F0E6F985
:1014A00000F06AFAE11704EB11610912A4EB0121C3
:1014B000C8B200F0DBF900F05FFA304600F0D6F970
:1014C00000F05AFA00F032FA0A2000F065FF70BD11
:1014D00008B50121042000F03BFC2020ADF80000FD
:1014E00010208DF8030003208DF80200694604489F
:1014F00000F032F82021024800F00BF908BD00008E
:101500000008014000BFFEE77047000008B5012158
:101510000C2000F01DFCF020ADF8000010208DF82C
:10152000030003208DF802006946094800F014F812
:101530004FF46040ADF8000010208DF80300032048
:101540008DF802006946034800F006F808BD000067
:10155000000C0140000801402DE9F0410246002541
:101560000026002000230024002791F803C00CF07F
:101570000F0591F803C00CF0100CBCF1000F03D064
:1015800091F802C04CEA050591F800C0BCF1000FCB
:1015900031D0146800202BE04FF0010C0CFA00F35E
:1015A000B1F800C00CEA03069E4220D183004FF040
:1015B0000F0C0CFA03F7BC4305FA03FC4CEA0404D5
:1015C00091F803C0BCF1280F06D14FF0010C0CFAC2
:1015D00000FCC2F814C00AE091F803C0BCF1480F47
:1015E00005D14FF0010C0CFA00FCC2F810C0401CF1
:1015F0000828D1D31460B1F800C0BCF1FF0F34DD6E
:10160000546800202EE000F1080C4FF0010808FAA1
:101610000CF3B1F800C00CEA03069E4221D183000E
:101620004FF00F0C0CFA03F7BC4305FA03FC4CEA2D
:10163000040491F803C0BCF1280F05D100F1080C97
:1016400008FA0CF8C2F8148091F803C0BCF1480FF6
:1016500007D100F1080C4FF0010808FA0CF8C2F8A5
:101660001080401C0828CED35460BDE8F0810000F3
:10167000F0B50A46002300240021002500F00046B2
:10168000B6F1004F02D11D4EF16901E01B4E7168A9
:10169000C0F3034583B200F44016B6F5401F08D1ED
:1016A00021F07061154E766826F07066134F7E60EB
:1016B00012E000F48016B6F5801F06D1032606FA64
:1016C00005F4A14341F0706106E0460D360103FACE
:1016D00006F6B14341F0706122B1460D360103FABE
:1016E00006F6314300F00046B6F1004F02D1034E3A
:1016F000F16101E0014E7160F0BD000000000140A9
:101700000246002093680B400BB1012000E000204E
:1017100070474161704701617047C160704700BF09
:10172000FEE7000010B500200F4908600F48006870
:1017300020F070400D4908600846006840F04050B5
:10174000086000200A49C1F89C01022000F04AFE0E
:10175000012005490860022000F044FE00200449F1
:10176000C1F8980110BD000098812142000C014091
:101770000080214208B50121082000F0E9FA4FF469
:101780004060ADF8000010208DF8030003208DF8B4
:10179000020069460448FFF7DFFE4FF4406102484B
:1017A000FFF7B9FF08BD0000000C014010B5002094
:1017B0000F4908600F48006820F070400D4908602C
:1017C0000846006840F04050086001200A49C1F80E
:1017D0009C01022000F006FE01200549086002205D
:1017E00000F000FE00200449C1F8980110BD00007F
:1017F00098812142000C01400080214270B50546CD
:1018000000241748006820F0704015490860084619
:10181000006840F000400860002616E000201149F2
:101820000860022000F0DEFD01200F49C1F8980198
:101830006006040E0B487C38006808B1601CC4B216
:10184000012000F0CFFD701CC6B2082EE6DB15B9F2
:10185000FFF7ACFF01E0FFF765FF204670BD000019
:10186000000C0140988121420080214270B504465D
:101870001848006820F07040164908600846006863
:1018800040F04050086000201349086000251EE029
:10189000E00920B101201049091D086003E0002083
:1018A0000D49091D08606006040E022000F09AFD33
:1018B000012009490860022000F094FD002007493A
:1018C000C1F89801022000F08DFD681CC5B2082DFA
:1018D000DEDB70BD000C0140988121420080214276
:1018E00010B50F48006820F070400D4908600846A8
:1018F000006840F04050086001200A4908600A4929
:10190000C1F89801042000F06DFD00200549086031
:10191000042000F067FD00200349C1F8980110BDC4
:10192000000C01409C8121420080214210B50F48EB
:10193000006820F070400D4908600846006840F0DB
:101940004050086000200A4908600A49C1F89C011B
:10195000042000F047FD0120054908600549C1F851
:101960009C01042000F03EFD10BD0000000C014071
:10197000988121420080214210B50024144800685B
:1019800020F07040124908600846006840F00040AE
:10199000086001200F49086000F024FD01200E4975
:1019A000C1F8980100F01EFD07E0601CC4B2FA2CDB
:1019B00003DDFFF7BBFF012010BD0648803800683B
:1019C0000028F2D10349091F086000BFF4E70000B6
:1019D000000C01409C8121420080214208B5012178
:1019E000042000F0B5F94FF4F050ADF800004820A5
:1019F0008DF8030069460248FFF7AEFD08BD000000
:101A00000008014010B5044614B1012030490870A7
:101A10002F48007800283DD04FF400712D48FFF783
:101A20006FFE88B14FF480612A48FFF769FE58B114
:101A30004FF400612748FFF763FE28B14FF480514F
:101A40002448FFF75DFE28BB0A2000F0A5FC00201B
:101A50001F4908704FF400711E48FFF751FE08B986
:101A6000012010BD4FF480611A48FFF749FE08B904
:101A70000220F6E74FF400611648FFF741FE08B96F
:101A80000320EEE74FF480511248FFF739FEE0B92A
:101A90000420E6E74FF400710E48FFF731FE0128FD
:101AA00013D181020B48FFF72BFE01280DD1C10293
:101AB0000848FFF725FE012807D101030548FFF775
:101AC0001FFE012801D1024908700020C9E700006B
:101AD000340000200008014010B5012000F05CF83F
:101AE00010BD10B5FFF712FD282000F055F80C20AE
:101AF00000F052F8062000F04FF8012000F04CF8FA
:101B000010BD70B504460E460EB9E5B202E004F110
:101B10004000C5B245F0800000F03EF870BD70B5E1
:101B200005460E46144631462846FFF7EAFF03E015
:101B300014F8010B00F05EF820780028F8D170BD91
:101B400010B5FF211248FFF7E8FD4FF4005110488F
:101B5000FFF7DFFD4FF480410D48FFF7DCFD00BFCC
:101B60004FF400410A48FFF7D6FD052000F014FCB1
:101B700080210848FFF7C4FD44B24FF400410448F7
:101B8000FFF7C7FD04F080000028E9D110BD000078
:101B9000000C01400008014010B50446FFF7D0FFDB
:101BA0004FF400511248FFF7B4FD4FF48041104844
:101BB000FFF7AFFD21460E48FFF7AFFD4FF40041A0
:101BC0000B48FFF7A8FD4FF400410948FFF7A1FDBE
:101BD00021010748FFF7A1FD4FF400410448FFF73A
:101BE0009AFD4FF400410248FFF793FD10BD00003D
:101BF000000C014010B50446FFF7A2FF4FF400515E
:101C00001248FFF788FD4FF480411048FFF781FD2F
:101C100021460E48FFF781FD4FF400410B48FFF7C6
:101C20007AFD4FF400410948FFF773FD2101074891
:101C3000FFF773FD4FF400410448FFF76CFD4FF4CC
:101C400000410248FFF765FD10BD0000000C014097
:101C500008B50121042000F07BF84FF48270ADF844
:101C6000000010208DF8030003208DF80200694663
:101C70000448FFF771FC4FF482710248FFF74BFDF7
:101C800008BD00000008014000BFFEE770470000EB
:101C900070B5002100230F22C47804B3154C2468CA
:101CA00004F4E064C4F5E064210AC1F10403CA400D
:101CB000447804FA03F184781440214309010E4C5E
:101CC0000678A155047804F01F050124AC4005787E
:101CD0006D11AD0005F1E025C5F8004109E004787B
:101CE00004F01F050124AC40044D0678761145F838
:101CF000264070BD0CED00E000E400E080E100E073
:101D000002490143024A1160704700000000FA05D1
:101D10000CED00E07047000001460020034A5068C7
:101D200020F440400843506070470000001002401B
:101D300029B1064AD2690243044BDA6104E0034A3E
:101D4000D2698243014BDA61704700000010024003
:101D500029B1064A92690243044B9A6104E0034A9E
:101D600092698243014B9A61704700000010024063
:101D700029B1064AD2680243044BDA6004E0034A00
:101D8000D2688243014BDA607047000000100240C5
:101D9000704710B500F002F810BD00000CB500202F
:101DA000019000903348006840F480303149086069
:101DB00000BF3048006800F4003000900198401CDB
:101DC0000190009818B90198B0F5A06FF1D1294899
:101DD000006800F4003010B10120009001E0002004
:101DE00000900098012843D12348006840F010007B
:101DF000214908600846006820F003000860084692
:101E0000006840F0020008601A48406819494860BC
:101E10000846406848600846406840F48060486072
:101E20000846406820F47C1048600846406840F44A
:101E3000E81048600846006840F08070086000BF05
:101E40000C48006800F000700028F9D0094840688C
:101E500020F00300074948600846406840F002004F
:101E6000486000BF0348406800F00C000828F9D122
:101E70000CBD00000010024000200240042808D1E0
:101E80004FF0E021096941F004014FF0E0221161B7
:101E900007E04FF0E021096921F004014FF0E02252
:101EA000116170477047000010B51348006840F09A
:101EB00001001149086008464068104908400E4971
:101EC0004860084600680E4908400B49086008460B
:101ED000006820F4802008600846406820F4FE0076
:101EE00048604FF41F008860FFF753FF4FF0006019
:101EF0000449086010BD0000001002400000FFF817
:101F0000FFFFF6FE08ED00E02DE9F04101212C482D
:101F100000F0E9F8002851D00121294800F0D4F858
:101F2000284801682848006801F00CF9074600219C
:101F300001F0CDF806D2234801682348006801F07B
:101F400001F908E02048006880F000471D4801685A
:101F5000384601F0F7F8064600F06CFF04461B4ACD
:101F60001B4B00F043FD0BD21A48007840B11A48D1
:101F70000068401C1849086012480068124908604F
:101F800015480068B0F5167F0CD913480068401C4E
:101F900011490860002011490860114908600D4985
:101FA00008700BE00C48006840F25E21884205D9B9
:101FB000002009490860012008490860BDE8F08157
:101FC000000400400C000020140000209A99999908
:101FD0009999C93F05000020180000209401214272
:101FE000000000207FB505460C4601210220FFF7C6
:101FF0009FFE0020ADF80A00ADF80600ADF80850CD
:10200000ADF8044001A90E4800F0EAF8012211469B
:102010000B4800F079F81D208DF8000000208DF8A5
:10202000010003208DF8020001208DF803006846AE
:10203000FFF72EFE0121024800F049F87FBD0000A5
:102040000004004030B589B005460C46012104204B
:10205000FFF76EFE01210820FFF77AFE4FF4807033
:10206000ADF8200018208DF8230003208DF8220001
:1020700008A91348FFF770FAADF81850ADF81440EE
:102080000020ADF81A00ADF8160005A90D4800F0C3
:10209000A7F87020ADF804000120ADF8060002207A
:1020A000ADF80C0001A9074800F038F808210548F0
:1020B00000F086F80121034800F009F809B030BDAE
:1020C0000008014000080040CA430282704721B165
:1020D000028842F00102028004E002884FF6FE739B
:1020E0001A400280704730B50246002000230024C9
:1020F000158A05EA0103958905EA010413B10CB1BB
:10210000012000E0002030BD1AB183890B43838198
:1021100002E083898B4383817047000070B50024FF
:1021200000220023058C4FF6EF7635400584028CA3
:102130008388048B48F6FF752C404FF6FF452C40F2
:102140000D884FF6FF7606EA05252C434FF6DF751E
:102150002A400D8906EA05152A434D8806EA051529
:102160002A43154DA84202D0144DA8421DD14FF666
:102170007F752A404D894FF6FF7606EA05152A43FA
:102180004FF6BF752A408D8806EA05152A434FF69B
:10219000FF352B404FF2FF752B408D8906EA8505F0
:1021A0002B43CD8906EA85052B4383800483CD88A4
:1021B0000587028470BD0000002C014000340140FE
:1021C0000A460021018B4FF2FF7319404FF6FF734F
:1021D00003EA022319430183704781867047000098
:1021E000002202881D4B98420ED01D4B98420BD006
:1021F000B0F1804F08D01B4B984205D01A4B984243
:1022000002D01A4B984204D14FF68F731A404B8874
:102210001A43174B984207D0164B984204D04FF6FA
:10222000FF431A40CB881A4302808B8883850B8832
:1022300003850A4B98420BD0094B984208D00E4BAD
:10224000984205D00D4B984202D00D4B984201D1D7
:102250000B7A03860123838270470000002C014023
:10226000003401400004004000080040000C004021
:1022700000100040001400400040014000440140B4
:102280000048014000BFFEE7490050EAC12018BFE6
:1022900004204A0D18BF40F0010040F2FF72B2EB7B
:1022A000515F08BF40F00200012808BF05207047B9
:1022B00030380A2801D20120704700207047000002
:1022C00000B587B001214FF40170FFF741FD0320F5
:1022D000ADF818008DF81A0000208DF81B0006A933
:1022E0001A48FFF739F94FF40040FFF715FD184879
:1022F000FEF78AFF00208DF8090004904FF460205B
:1023000003900020019001208DF8140000208DF82A
:10231000080001A90E48FEF7C7FF01210C48FEF78F
:1023200068FF0B48FFF744F800BF0948FEF7B1FF0C
:102330000028FAD10648FFF74BF800BF0448FEF723
:1023400091FF0028FAD107B000BD0000000801404D
:102350000024014010B56FF00400FFF78FFD0A481C
:1023600000680A49B0FBF1F0094908700846007896
:1023700000EB4001C1EBC0104FF6FF7101EAC00055
:102380000449088010BD00001C00002000127A00E3
:1023900030000020320000200146114A12884A43D2
:1023A0004FF0E0235A6100229A611A46126942F006
:1023B00001021A6100BF4FF0E022106900F0010233
:1023C0001AB100F48032002AF5D04FF0E0221269F1
:1023D00022F001024FF0E0231A6100229A61704757
:1023E000320000200146114A12784A434FF0E023A0
:1023F0005A6100229A611A46126942F001021A617A
:1024000000BF4FF0E022106900F001021AB100F4A1
:102410008032002AF5D04FF0E022126922F001024A
:102420004FF0E0231A6100229A61704730000020CB
:1024300010B504460723012221460948FEF75CFF38
:1024400001210748FEF7B9FF00BF02210448FEF74B
:1024500017FF0028F9D00248FEF70EFF10BD00005C
:10246000002401402DE9F04107460C4600250026D6
:1024700008E03846FFF7DCFF05440520FFF78CFF36
:10248000701CC6B2A642F4DBB5FBF4F080B2BDE826
:10249000F081000010B50446012C06D0022C13D0A8
:1024A000032C1DD0042C2DD123E018480078401CAB
:1024B0001649087008460078012801DD00200870E0
:1024C0000120FFF769FB1EE011480078401C10490D
:1024D000087008460078012801DD0020087012E02D
:1024E0000C4908684FF07E5100F0D0FC09490860A3
:1024F00009E0084908684FF07E5100F023FE0549C5
:10250000086000E000BF00BF10BD00000500002013
:1025100004000020000000207CB500200090019005
:102520003048007850B900212F48FFF756FE2FA2FF
:1025300001210020FFF7F3FA00207CBD2DA201212C
:102540000020FFF7ECFA2D480078002820D02CA2BC
:1025500000210220FFF7E3FA29A201210220FFF760
:10256000DEFA2D49086800F065FC044622460B4659
:102570002AA16846FDF734FE6A4601210720FFF7CD
:10258000CEFA042224490020FEF768FF0020D4E799
:102590002448006800F008FD064600F04BFC0446A5
:1025A00022460B461DA16846FDF71AFE6A46012128
:1025B0000220FFF7B4FA1CA200210846FFF7AFFA89
:1025C0001B48006800F036FC044622460B4613A167
:1025D0006846FDF705FE6A4600210720FFF79FFACF
:1025E0000120AAE70500002000080040536C656543
:1025F0007000000054656D703A0000000400002077
:1026000020202020202020202020202020202020CA
:10261000202020200000000000000020252E316630
:1026200000000000080000204375723A000000001E
:102630000C0000201CB54FF0000AD346002001908A
:1026400000904FF4A060FFF75BFB01210846FFF705
:102650007FFB01215848FFF70BF8FFF77BFEFFF7E0
:10266000F7FAFEF735FFFFF7B9F9FFF729FEFEF796
:10267000B4FE41F61F4141F28730FFF7B3FC41F64B
:102680001F41C720FFF7DEFCFFF72BFAFFF724FA04
:1026900004224A490020FEF7A4FE48490868484938
:1026A00000F015FD02D20020444908601420FFF715
:1026B00073FE44A201210020FFF731FA7BE00020E5
:1026C000FFF7A0F982465046FFF7E4FE05210020FF
:1026D000FFF7C8FE834605210120FFF7C3FE3B49F3
:1026E0000860584600F060FC804600F0A3FB0646F8
:1026F0004FF06632364B00F0B5F9044600F090F822
:102700000090009800F096FB80460022314B00F0CC
:10271000A7FA06460022304B00F0A4F9044600F068
:102720007FF82E4908602E4801682C48006800F0A8
:10273000CEFC0CD201202B49086000202A49C1F8A8
:10274000880100212948FFF7C2FC00BFFEE7FFF720
:10275000E3FE1E48006800F027FC044617480168A5
:10276000204600F0B4FC08D200212048FFF735FDD8
:1027700001201C490C3108601DE01448006800F07D
:1027800013FC04460D480168204600F0D1FC01907E
:10279000002014490C3108601549019800F097FC9D
:1027A00001D213480190019800F0DEFB84B221466B
:1027B0000E48FFF712FD82E7000230000000002003
:1027C00000001644536C656570000000080000208E
:1027D00066664A3F00000440000024400C000020D0
:1027E0001000002094012142000021420008004016
:1027F0000000484310B500290AD00878002807D007
:1028000005487844FEF7E6F8002801D0002010BD06
:102810000248784410BD0000E60A0000DE0A00000D
:1028200021F00042A2F16052B2F5801F01F0004396
:1028300028BFD2F17F6C0BD95FEA001C43EAC202C9
:1028400042EB507018BF704728BF20F0010070475E
:10285000B2F5801FBCBF184670474FEA410C1CF50B
:10286000001F02D2084600F02DBC70B500F0A4F99C
:1028700000000089FFF7F6BF4FF00040A0F5800090
:102880007047000010B591EA030F48BF83F0004382
:1028900000F1EE81841A71EB030C05D2121943EB9F
:1028A0000C03001B61EB0C01DFF824E14FEA11542B
:1028B000A4EB135C1EEA430F18BF9EEA445F73D07B
:1028C00023EA0E03DCF1200E21EA045143F48013C5
:1028D00032D322FA0CFE10EB0E0023FA0CFE41EB71
:1028E0000E01CCF1200E03FA0EFE10EB0E0051F19A
:1028F0000001B1F5801FCCF1200E32D201EB045162
:1029000012FA0EF2BDE8104058BF7047401C38BFA5
:102910005FEA420218BF7047002814BF20F0010090
:1029200041F100014FEA410313F5001F38BF704722
:10293000A1F1C04100F08EB9012A43EB0302ACF1D2
:10294000200CDCF11F0E32BF4FF0000E23FA0CF307
:1029500010EB030041EB0451B4EB115FD0D0A1EBBD
:10296000045101F5801149085FEA300001EB045180
:102970000ED350F1000038BF12FA0EFE08D1BDE8A8
:102980001040C9E7401C38BF5FEA4202CAD1C3E722
:10299000BDE810404FEA410313F5001F38BF7047F0
:1029A000A1F1C04100F056B99EEA445F08D011EA97
:1029B0005E0FBDE8104004BF01F0004100207047E9
:1029C000BDE8104070B500F0F7F800BF64FBBE3EF4
:1029D0000000E0FF491058BFC1F140415B1058BFF3
:1029E000C3F140438B42EFF30080704751EA030C80
:1029F00017D41CF5801F58BFBCF5801F00F106805E
:102A0000994218BF704708BF9042704707D711F529
:102A1000801F58BF13F5801F19D49942704789420F
:102A200070471CF5801F08D5BCF5801FF7D58B4279
:102A300018BF704708BF824270474FF4001C1CEB60
:102A4000410F38BF1CEB430F01D28B42704770B56A
:102A500000F0B2F8922449004FF000514FF080533B
:102A6000FFF7B8BFDFF848C170B51CEA111E1EBFE2
:102A70001CEA13159EEA0C0F95EA0C0F00F06F800C
:102A800081EA030423EA4C134EEAD47E21EA4C1176
:102A900041F4801143F48013AE44A1FB024CA0FB2F
:102AA0000365AEF17F7E361955EB0C05A1FB034C97
:102AB0004CF10003A0FB021C16EB0C06654153F120
:102AC0000003094218BF46F0010613F4007F0BD142
:102AD0004FEA03314FEA0530340341EA155140EA29
:102AE00016506FF003020AE04FEAC3214FEAC520F7
:102AF000F40241EA555140EA56506FF0020202EBEF
:102B00002E4201EB025585EACE710AD05FEA440CF1
:102B100018BF24F0004450F1000041F1000120EA08
:102B2000D47040F2FE7C624500D270BDA84214BF52
:102B30004FF080444FF04044002E08BF0024BEF107
:102B4000806FA8BFA1F1C041BDE8704080F28280D3
:102B50004FF0000001F1C04101F0004170479EEAD2
:102B60000C0F0CEA131518BF95EA0C0F06D04FF0A6
:102B7000000081EA030E0EF0004170BD00F01CF869
:102B80008900013E00F007B800F009B84FEA430C95
:102B90005FEA5C5C08D081EA030100F05BB84FEAB1
:102BA000410C5FEA5C5CF6D14FF0000001497047D0
:102BB0000000FF070000F87F0EF1020E2EF0030E5A
:102BC0005EF8046B364205D4012A43EB030515F584
:102BD000001F12D8012841EB010C1CF5001F0CD876
:102BE0000ED14FEAD17C15F5001F0CEB4C0C0CF10B
:102BF000020C08BF4CEBD37C04E04FF0080C01E062
:102C00004FEAD37C0CEB4C0526FA05F606F00706D6
:102C1000B6F1040C06D20EEB860CBDE870404CF009
:102C2000010C6047DFE80CF0090B02024FF0004195
:102C30004FF00000A1F5002170BD19461046012893
:102C400051EB010418BFD4F5001484BF002001F03B
:102C5000004170BD0808A0F500114FEA310170472E
:102C600010B591EA030F48BF83F000433FF512AE61
:102C7000841A71EB030C07D212198CF0004C43EB51
:102C80000C03001B61EB0C01DFF8A4E14FEA1154C7
:102C9000A4EB135C1EEA430F18BF9EEA445F00F0EA
:102CA000B08023EA6E03524221EA0451C3EB6E0363
:102CB00038BF5B1EDCF1200E25D322FA0CFE10EB90
:102CC0000E0043FA0CFE41EB0E01CCF1200E03FA8C
:102CD0000EFE10EB0E0051F10001CCF1200E29D4B4
:102CE00012FA0EF201EB0451BDE8104058BF7047D4
:102CF000401C1CBFB2F1004F704700280CBF491C9C
:102D000020F00100704712EB020E43EB030218BFE4
:102D10004FF0010E4EEA4202ACF1200CDCF11E0E27
:102D200054D943FA0CFE10EB0E0051F1FF31CCF1F7
:102D30001E0ED5D50EF1010E12FA0EFE404141EBEA
:102D4000010101EB445C5FEA5C5C10D910EBDE70C2
:102D500001EB045138BFBEF1004FBDE8104018BF71
:102D6000704700280CBF491C20F00100704730D28A
:102D70004FEAD42C11F5001124F400641BD0B1FAF1
:102D800081F20B3AA41AA41ED2F12003914030FA2A
:102D900003F31943904001EBCC71002C01EB04517B
:102DA000BDE81040A8BF704701F1C0414FF00000DE
:102DB00001F000417047B0FA80F310FA03F100D13E
:102DC00010BDE41A173C4805C90AE4E701EB0451B9
:102DD00010BD491001EB0451BDE810404FEA30002E
:102DE00002E04FF0000170474A0008BF0042F8D0EF
:102DF000B2F5001F28BF704701F000414FF00000FE
:102E000070479EEA445F07D011EA5E0FBDE81040AC
:102E100004BF002100207047BDE8104070B5FFF7E7
:102E2000CBFE00BF40DFF63E83F000411046704706
:102E30000000E0FF43004FEAD30C4FEA3C0C434054
:102E40001FBF40070CF1605113F0FE4F70471CF09C
:102E5000006F03D100200CF0004170470CF00043DC
:102E600043EA507010B540EACC0000F0E5F800BF2E
:102E7000000000924FEA0001FFF7ECBE4FF0004166
:102E80004FF00000A1F500217047000090EA010F0B
:102E900048BF81F0004100F15C81421A3CBF801ABA
:102EA00089184FEAD0524FF07F4C1CEA410FA2EB39
:102EB000D15318BF9CEA026F00F03B804FF0004CEA
:102EC0004CEA00204CEA012121FA03FC10EB0C0C27
:102ED0001ED202F1FF325FEA1C2040EBC25038BF25
:102EE00070471CF07F0F4FEA400C18BFBCF17F4FBA
:102EF00038BF7047C3F12003994008BF20F001009C
:102F0000BCF17F4F38BF7047A0F1C04000F0DAB885
:102F10004FEA3C00000A40EBC25028BF1CF0FF0FF4
:102F20004FEA400CE6D018BFBCF17F4F38BF704766
:102F3000EAE79CEA026F05D010EA5C0F08BF00F0D8
:102F40000040704710B500F077F800BF64FBBE3E4C
:102F5000401058BFC0F14040491058BFC1F1404136
:102F60008142EFF300807047C10DD1F19E0206DB74
:102F70004FEA002343F0004323FA02F07047004277
:102F800007D54FEA4001B1F1FE4F02D24FF00000E9
:102F9000704710B500F050F8499224800020704727
:102FA0006FEA200070470000B0FA80F310FA03F2D5
:102FB000C3F19D030AD0D90501EB1220530638BF97
:102FC000704700F1010008BF20F0010070470000C9
:102FD00050EA010C00F113801CF5000F58BFBCF53E
:102FE000000F01D48842704707D710F5000F58BF73
:102FF00011F5000F15D488427047894270471CF5BF
:10300000000F04D5BCF5000FF7D5814270474FF093
:10301000807C1CEB400F38BF1CEB410F01D281427A
:10302000704710B500F008F8922449004FF00050A6
:103030004FF08051FFF78CBF0EF1020E2EF0030E01
:103040005EF8044B244204D44FEA4102B2F17F4FB0
:1030500011D84FEA4003B3F17F4F0CD80ED14FEA9D
:10306000D07CB2F17F4F0CEB4C0C0CF1020C08BF82
:103070004CEBD17C04E04FF0080C01E04FEAD17C2E
:103080000CEB4C0324FA03F404F00704B4F1040C31
:1030900006D20EEB840CBDE810404CF0010C6047EA
:1030A000DFE80CF0070802024FF00040A0F58000B6
:1030B00010BD0846420018BFD2F1807288BF00F0F0
:1030C000004010BDFF2141EAD050C005704751EAD1
:1030D000000C00F113801CF5000F58BFBCF5000F69
:1030E00001D48142704707D711F5000F58BF10F582
:1030F000000F15D481427047894270471CF5000FBC
:1031000004D5BCF5000FF7D5884270474FF0807C9E
:103110001CEB410F38BF1CEB400F01D288427047B7
:1031200080EA010081EA000180EA0100FFF779BF2F
:1031300080F0004090EA010F7FF5AFAE81F00041D2
:1031400000F007B890EA010F48BF81F000413FF559
:10315000A4AE421A04D882F00042A0EB020011444F
:103160004FEAD0524FF07F4C1CEA410FA2EBD153F3
:1031700018BF9CEA026F4AD04FF0004C4CEA002086
:103180004CEA012121FA03FCB0EB0C0C0FD412F035
:10319000FE0F36D05FEA4C001DD5001240EBC25046
:1031A00038BF70471CF03F0F18BF70470BE0A2F10B
:1031B00001025FEA1C2040EBC25038BF70471CF090
:1031C0007F0F18BF7047C3F12003994014BF401E02
:1031D00020F00100704780084FEA122308BF7047B3
:1031E000B0FA80FCA2EB0C02CCF1280C60FA0CF0D7
:1031F00093EA122F04BF00EBC25070474FEAC3702E
:103200007047130A5FEADC1008BF7047F6E79CEAD4
:10321000026F04D010EA5C0F08BF0020704710B5A1
:10322000FFF70AFF40DFF63E81F000407047FDF7F0
:103230004EB9000002400000000000A000000000A5
:1032400005400000000000C8000000000C40000025
:103250000000409C00000000194000000020BCBE9F
:103260000000000034400000BFC91B8E00000004B5
:10327000B5400000504BCFD06607E2CF0100000000
:103280006C4100003E8251AADFEEA734010000002D
:10329000D9420000DCB5A0E23A301F97FFFFFFFFE4
:1032A000B4450000FD25A0C8E9A3C14FFFFFFFFF03
:1032B000FF3F00000000008000000000FF3F000012
:1032C000000000800000000004330008000000201F
:1032D00038000000280100083C33000838000020B6
:1032E00060060000440100081C00000043000000CC
:1032F000F8FFFFFF0C0000000E0000000F000000B0
:103300002E0000000000000000010000000000008E
:1033100000000000000070410000000000000000FC
:1033200000A24A04000000000000000001020304A3
:0C33300006070809000000000100000072
:04000005080001A14D
:00000001FF
