:020000040800F2
:10000000F8060020090A0008D1030008D3030008FD
:10001000D7030008DB030008DF030008000000002E
:10002000000000000000000000000000E3030008E2
:10003000E503000800000000E7030008E9030008EA
:10004000230A0008230A0008230A0008230A0008DC
:10005000230A0008230A0008230A0008230A0008CC
:10006000230A0008230A0008230A0008230A0008BC
:10007000230A0008230A0008230A0008230A0008AC
:10008000230A0008230A0008230A0008230A00089C
:10009000230A0008230A0008230A0008230A00088C
:1000A000230A0008230A0008230A0008230A00087C
:1000B000230A0008230A0008230A0008230A00086C
:1000C000230A0008230A0008230A0008230A00085C
:1000D000230A0008230A0008230A0008230A00084C
:1000E000230A0008230A0008230A0008230A00083C
:1000F000230A0008230A0008230A0008230A00082C
:10010000230A0008230A0008230A0008230A00081B
:10011000230A0008230A0008230A0008230A00080B
:10012000230A0008230A0008230A0008230A0008FB
:1001300000F002F800F03AF80AA090E8000C8244BF
:100140008344AAF10107DA4501D100F02FF8AFF29C
:10015000090EBAE80F0013F0010F18BFFB1A43F0A5
:1001600001031847C81B0000E81B0000103A24BF19
:1001700078C878C1FAD8520724BF30C830C144BF0C
:1001800004680C607047000000230024002500264E
:10019000103A28BF78C1FBD8520728BF30C148BFEA
:1001A0000B6070471FB51FBD10B510BD01F065FA9B
:1001B0001146FFF7F7FF00F07BF801F083FA03B474
:1001C000FFF7F2FF03BC01F08BFA000070B5754831
:1001D0000088642190FBF1F0303073490872714857
:1001E0000088642190FBF1F201FB12000A2190FBD0
:1001F000F1F030306C4948722E20887269480088CE
:100200000A2190FBF1F201FB120030306649C872FE
:10021000002506E06448425D0021284600F0D8FA37
:100220006D1C102DF6D3002406E06048025D01210C
:10023000204600F0CDFA641C0F2CF6D370BD70B5CB
:1002400058480088642190FBF1F03030584908721A
:1002500054480088642190FBF1F201FB12000A214E
:1002600090FBF1F03030524948722E2088724D4890
:1002700000880A2190FBF1F201FB120030304C495A
:10028000C872002506E04A48425D0021284600F079
:100290009FFA6D1C102DF6D3002406E04548025D40
:1002A0000121204600F094FA641C0F2CF6D370BD97
:1002B0001CB54FF002094FF0000A00F03BFB00F0C4
:1002C00085F900F0F9F900F01CFB00F06AFA012052
:1002D0003949086000203949C1F8B801012038497E
:1002E00008605DE00A21002000F0BDF9019001984E
:1002F00001F03CFC4FF08B41009001F055FB834630
:1003000001F026FB07464FF066322E4B01F022FA31
:10031000054601F0EDF9044621462B4801F03AFC70
:1003200006462A4901F040FB054601F0FFFB1D4946
:10033000088008460088B0F5C87F04DDFFF77FFF1E
:100340004FF0010903E0FFF741FF4FF00009B9F159
:10035000010F11D1BAF1010F0ED101201649086029
:1003600000201649C1F8B8010120154908604FF076
:1003700002094FF0000A13E0B9F1000F10D1BAF1F1
:10038000000F0DD100200C49086001200B49C1F875
:10039000B80100200A4908604FF002094FF0010A35
:1003A000A0E7000040000020000000201000002016
:1003B0002000002030000020B40121420000214232
:1003C0008001224266660A4000401C46000004424A
:1003D000704700BFFEE700BFFEE700BFFEE700BFBB
:1003E000FEE7704770477047704700000CB500206B
:1003F000019000906C48006840F480306A490860C1
:1004000000BF6948006800F4003000900198401C6B
:100410000190009818B90198B0F5A06FF1D1624829
:10042000006800F4003010B10120009001E00020CD
:1004300000900098012843D15C48006840F010000B
:100440005A4908600846006820F003000860084622
:10045000006840F002000860534840685249486014
:100460000846406848600846406840F4806048603C
:100470000846406820F47C1048600846406840F414
:10048000E81048600846006840F08070086000BFCF
:100490004548006800F000700028F9D042484068E4
:1004A00020F00300404948600846406840F00200E0
:1004B000486000BF3C48406800F00C000828F9D1B3
:1004C0000CBD10B5FFF792FF10BD10B5364800689F
:1004D00040F001003449086008464068344908404B
:1004E0003149486008460068324908402E49086092
:1004F0000846006820F4802008600846406820F420
:10050000FE0048604FF41F008860FFF7DAFF4FF0ED
:1005100000602949086010BD10B5002100200022AC
:10052000214B5B6803F00C0121B1042906D0082996
:1005300028D107E0214B224C236027E01F4B204CA1
:10054000236023E0184B5B6803F47010164B5B6864
:1005500003F48032022303EB904022B9194B43434A
:10056000174C23600DE0104B5B6803F4003323B19C
:10057000144B4343124C236003E0104B4343104C95
:10058000236003E00D4B0E4C236000BF00BF064B01
:100590005B68C3F303130C4CE15C094B1B68CB4055
:1005A000074C236010BD00000010024000200240F4
:1005B0000000FFF8FFFFF6FE08ED00E000127A00F1
:1005C0004400002000093D004800002000B587B02D
:1005D00001214FF4017000F0E9FF4FF4004000F0FA
:1005E00049FF0120ADF8040000208DF8070001A9A3
:1005F000284800F01FFD284800F094FA00200290DF
:100600008DF80C008DF80D004FF460200490002050
:10061000059001208DF8180002A91F4800F0A9FAE2
:1006200001211D4800F0D1FA1B4800F0F0FA1A48E9
:1006300000F0FCFA07B000BD10B504460723012204
:100640002146154800F02DFB0121134800F0FDFA6A
:1006500000BF0221104800F069FC0028F9D00E48C4
:1006600000F086FB10BD2DE9F04107460C46002541
:10067000002608E03846FFF7DFFF0544052000F0BC
:1006800096F9701CC6B2A642F4DBB5FBF4F080B25A
:10069000BDE8F0810008014000240140014605E06A
:1006A000002000E0401CB0F5967FFBD30A1EA1F1AC
:1006B0000103D9B2F4D1704708B501210C2000F034
:1006C00075FF4FF47840ADF8000010208DF803005E
:1006D00003208DF802006946594800F0ABFC4FF446
:1006E0007F60ADF8000010208DF8030003208DF826
:1006F00002006946534800F09DFC4FF47040ADF88D
:10070000000010208DF8030003208DF802006946D8
:100710004C4800F08FFC08BD10B5FF2049490C3152
:10072000086000204849086000BF01204649091DB3
:1007300008600520FFF7B2FF8021424800F00DFD60
:10074000044604F080000028EFD13F49091D0860ED
:1007500010BD10B5044600203B4908603B49C1F874
:10076000B0010520FFF79AFF394800884FF20F01CA
:10077000084040EA0410364908800846018831489C
:1007800000F00EFD0A20FFF789FF01202E49091D08
:1007900008600A20FFF782FF00202C49C1F8B00151
:1007A00010BD10B53820FFF7D4FF3820FFF7D1FF78
:1007B0003820FFF7CEFF0C20FFF7CBFF0620FFF716
:1007C000C8FF0120FFF7C5FF8020FFF7C2FF10BD63
:1007D00070B504460D46164604F00F0405F00105F9
:1007E00005B1403480342046FFF7B3FF0520FFF702
:1007F00055FF01201449086000201449C1F8B001D8
:100800000520FFF74BFF124800884FF20F01084008
:1008100040EA06100E49088008460188094800F0A1
:10082000BFFC0A20FFF73AFF01200749091D0860B5
:100830000A20FFF733FF00200449C1F8B00170BD62
:1008400000080140000C0140AC012142000021429F
:100850005800002007E04FF47A7100BF0A1EA1F192
:100860000101FBD1401E0028F5D1704710B50024CE
:100870000AE02D4830F8240081B22C4800F090FCAA
:100880006420FFF7E7FF641C042CF2DB10BD10B5F9
:1008900000240AE0264830F8240081B2234800F002
:1008A0007FFC6420FFF7D6FF641C042CF2DB10BD34
:1008B00010B500211D4800F073FC10BD70B5064650
:1008C0000D46012E0ED1002403E0FFF7E0FF601C6F
:1008D00084B2A8012D2190FBF1F0A042F5DCFFF7D6
:1008E000E7FF0DE0002403E0FFF7C0FF601C84B2C7
:1008F000A8012D2190FBF1F0A042F5DCFFF7D8FF15
:1009000070BD08B50121102000F050FE0F20ADF899
:10091000000010208DF8030003208DF802006946C6
:10092000024800F087FB08BD5C0000200010014079
:100930006C00002010B56FF0040000F0D4F82E48D1
:1009400000682E49B0FBF1F02D4908700846007888
:1009500000EB4001C1EBC0104FF6FF7101EAC0008F
:100960002849088010BD0146254A12784A434FF0B5
:10097000E0235A6100229A611A46126942F001028C
:100980001A6100BF4FF0E022106900F001021AB1B5
:1009900000F48032002AF5D04FF0E022126922F0F4
:1009A00001024FF0E0231A6100229A61704701466C
:1009B000144A12884A434FF0E0235A6100229A6198
:1009C0001A46126942F001021A6100BF4FF0E0229C
:1009D000106900F001021AB100F48032002AF5D04B
:1009E0004FF0E022126922F001024FF0E0231A6179
:1009F00000229A61704700004400002000127A0033
:100A00007C0000207E0000200948804709480047FC
:100A1000FEE7FEE7FEE7FEE7FEE7FEE7FEE7FEE7AE
:100A2000FEE7FEE704480549054A064B704700000B
:100A3000CB04000831010008F8000020F80600206F
:100A4000F8020020F802002031490143314A1160C8
:100A5000704770B5002100230F22C47804B32D4CD9
:100A6000246804F4E064C4F5E064210AC1F10403DD
:100A7000CA40447804FA03F1847814402143090100
:100A8000254C0678A155047804F01F050124AC40DC
:100A900005786D11AD0005F1E025C5F8004109E0CC
:100AA000047804F01F050124AC401C4D0678761133
:100AB00045F8264070BD1A4A0A400243154B1B1FD9
:100AC0001A60704739B1134A121D12680243114B64
:100AD0001B1D1A6006E00F4A121D126882430D4B5F
:100AE0001B1D1A607047042808D14FF0E0210969E6
:100AF00041F004014FF0E022116107E04FF0E021E6
:100B0000096921F004014FF0E022116170470000F3
:100B10000000FA050CED00E000E400E080E100E0F8
:100B200080FFFF1F10B50446FA48844208D1012116
:100B3000401500F055FD0021601500F051FD17E053
:100B4000F548844208D10121001500F049FD00213B
:100B5000201500F045FD0BE0F048844208D101214A
:100B6000C80300F03DFD00214FF4004000F038FDC7
:100B700010BD30B50246002000235068E84C2040EC
:100B80000D790C6844EA0524204350609068E54CD8
:100B90002040D1E902542C434D7944EA45042043D6
:100BA0009060D06A20F470000C7C641EE4B2234391
:100BB00040EA0350D06230BD0021016001714171F3
:100BC0008160C16001210174704721B1826842F0E7
:100BD0000102826003E0826822F0010282607047B5
:100BE00021B1826842F48072826003E0826822F45C
:100BF00080728260704710B50023CBB21AB144688E
:100C00001C43446002E044689C43446010BD81681A
:100C100041F0080181607047014600208A6802F0B7
:100C200008020AB1012000E000207047816841F00D
:100C3000040181607047014600208A6802F00402C6
:100C40000AB1012000E00020704721B1826842F41F
:100C5000A002826003E0826822F4A00282607047F2
:100C6000014600208A6802F480020AB1012000E0F7
:100C70000020704710B50A4600210023416821F486
:100C80006041531E41EA4331416010BD21B14268C9
:100C900042F40062426003E0426822F40062426073
:100CA0007047F0B504460D4600200021092D11DDE6
:100CB000E068A5F10A0606EB4607072606FA07F1E3
:100CC0008843A5F10A0606EB460603FA06F1084337
:100CD000E0600CE0206905EB4507072606FA07F1FE
:100CE000884305EB450603FA06F108432061072A0D
:100CF0000FDA606B561E06EB86071F2606FA07F111
:100D00008843561E06EB860605FA06F10843606323
:100D100022E00D2A0FDA206BD61F06EB86071F266E
:100D200006FA07F18843D61F06EB860605FA06F198
:100D30000843206310E0E06AA2F10D0606EB860787
:100D40001F2606FA07F18843A2F10D0606EB860678
:100D500005FA06F10843E062F0BD21B1826842F471
:100D60008012826003E0826822F480128260704701
:100D70000146C86C80B2704766484C3000687047C6
:100D800021B1426842F48062426003E0426822F48A
:100D900080624260704721B1426842F480524260F2
:100DA00003E0426822F48052426070470A46002104
:100DB000816821F4E04111438160704721B182686C
:100DC00042F40042826003E0826822F400428260C2
:100DD000704721B1826842F40212826003E08268A7
:100DE00022F4021282607047014600208A6802F4F1
:100DF00000120AB1012000E000207047F0B504465F
:100E00001546002000220026092911DDE068A1F125
:100E10000A0707EB470C072707FA0CF29043A1F1EA
:100E20000A0707EB470703FA07F21043E0600CE0FC
:100E3000206901EB410C072707FA0CF2904301EB04
:100E4000410703FA07F210432061A06BC0F301567B
:100E5000EF1C06F1010CA7EB0C0707EB870C1F2713
:100E600007FA0CF29043EF1C06F1010CA7EB0C07FC
:100E700007EB870701FA07F21043A063F0BD10B536
:100E80000A4600210023816B21F44011531E41EAE0
:100E90000351816310BD08B5002300930090009BAF
:100EA0000B440093009B1A6008BD08B50246002061
:100EB0000090009201F12800009B184400900098D7
:100EC000006880B208BD0A4600214168164B1940EF
:100ED0001143416070474162826270470A460021B7
:100EE000416821F01F0111434160704740B1094939
:100EF0000831096841F40001064A0832116007E030
:100F000004490831096821F40001024A08321160DD
:100F1000704700000024014000280140003C0140CF
:100F2000FFFEF0FFFDF7F1FFFFFD3FFF024600204F
:100F300013680B400BB1012000E000207047CA434A
:100F40000260704770B502460020002300240B1297
:100F50005568CEB205EA060415681D4015B10CB1FE
:100F6000012000E0002070BD00220A12D34303607C
:100F70007047000010B50446CC48844208D10121D6
:100F8000042000F02DFB0021042000F029FB46E0A6
:100F9000C748844208D10121082000F021FB00212C
:100FA000082000F01DFB3AE0C248844208D101212C
:100FB000102000F015FB0021102000F011FB2EE0A6
:100FC000BD48844208D10121202000F009FB002106
:100FD000202000F005FB22E0B848844208D101211E
:100FE000402000F0FDFA0021402000F0F9FA16E060
:100FF000B348844208D10121802000F0F1FA002199
:10100000802000F0EDFA0AE0AE48844207D10121C9
:10101000801500F0E5FA0021A01500F0E1FA10BDFE
:1010200010B50121084600F0DBFA0021012000F094
:10103000D7FA10BD2DE9F041024600250026002018
:1010400000230024002791F803C00CF00F0591F84D
:1010500003C00CF0100CBCF1000F03D091F802C0DB
:101060004CEA050591F800C0BCF1000F31D01468BE
:1010700000202BE04FF0010C0CFA00F3B1F800C097
:101080000CEA03069E4220D183004FF00F0C0CFAAD
:1010900003F7BC4305FA03FC4CEA040491F803C0CF
:1010A000BCF1280F06D14FF0010C0CFA00FCC2F87D
:1010B00014C00AE091F803C0BCF1480F05D14FF00D
:1010C000010C0CFA00FCC2F810C0401C0828D1D357
:1010D0001460B1F800C0BCF1FF0F34DD546800208B
:1010E0002EE000F1080C4FF0010808FA0CF3B1F8FB
:1010F00000C00CEA03069E4221D183004FF00F0C82
:101100000CFA03F7BC4305FA03FC4CEA040491F81B
:1011100003C0BCF1280F05D100F1080C08FA0CF847
:10112000C2F8148091F803C0BCF1480F07D100F158
:10113000080C4FF0010808FA0CF8C2F81080401CA7
:101140000828CED35460BDE8F0814FF6FF710180CE
:10115000022181700421C17070470246002093680B
:101160000B400BB1012000E0002070470146886869
:1011700080B2704702460020D3680B400BB10120BB
:1011800000E0002070470146C86880B270470161E6
:101190007047416170470AB1016100E041617047E9
:1011A000C16070474FF480320A438261816182617D
:1011B00082698269704702460020434B18684FF6E7
:1011C0008073184040EA021008433F4B1860704794
:1011D0003E49C8617047F0B50A460023002400214B
:1011E000002500F00046B6F1004F02D1364EF169FD
:1011F00001E0354E7168C0F3034583B200F4401638
:10120000B6F5401F08D121F070612F4E766826F0A8
:1012100070662D4F7E6012E000F48016B6F5801FD8
:1012200006D1032606FA05F4A14341F0706106E0F9
:10123000460D360103FA06F6B14341F0706122B162
:10124000460D360103FA06F6314300F00046B6F1CA
:10125000004F02D11C4EF16101E01B4E7160F0BDE8
:1012600030B500228B071C0F0F2303FA04F2164B34
:1012700008338C1053F824309343134C08348D10EA
:1012800044F8253023468C1053F824308C07240F63
:1012900000FA04F423430C4C08348D1044F8253034
:1012A00030BD0A49DC310860704700000008014089
:1012B000000C0140001001400014014000180140E2
:1012C000001C0140002001400000014000002042BD
:1012D000DF48006840F00100DD49086008464068CA
:1012E000DC490840DA49486008460068DA490840A5
:1012F000D74908600846006820F480200860084646
:10130000406820F4FE0048604FF41F00886070477A
:10131000CF49096821F48031CD4A1160114609682E
:1013200021F480211160B0F5803F03D0B0F5802F0B
:101330000ED106E0C649096841F48031C44A116003
:1013400007E0C349096841F4A021C14A116000E0E7
:1013500000BF00BF704710B50146002200230020E7
:101360004A11012A02D1BA4C236806E0022A02D1AE
:10137000B74C236A01E0B64C636A01F01F020124F6
:1013800094401C400CB1012000E0002010BD38B595
:10139000002000900024002500BF3120FFF7DBFF74
:1013A00005460098401C00900098B0F5A06F01D051
:1013B000002DF2D03120FFF7CEFF08B1012400E06C
:1013C0000024204638BD01460020A14A106820F0C4
:1013D000F80040EAC10010607047A04908607047FB
:1013E000024600209A4B586820F47C1042EA010320
:1013F0001843974B586070479849086670470146F4
:101400000020934A506820F0030008435060704762
:101410008F48406800F00C007047014600208C4A5D
:10142000506820F0F00008435060704701460020EB
:10143000874A506820F4E0600843506070470146D6
:101440000020834A506820F4605040EAC100506098
:10145000704729B17E4A527A02437D4B5A7204E0AA
:101460007B4A527A82437A4B5A7270477B49D83111
:101470000860704701460020754A506820F44040DB
:101480000843506070470021714A20321170704A41
:1014900082F82010012802D004280AD104E001219A
:1014A0006B4A2032117005E00521694A2032117023
:1014B00000E000BF00BF7047694908607047644999
:1014C000096A0143624A11627047654944390860FC
:1014D000704730B500210022002400235C4D6D6868
:1014E00005F00C0121B1042905D0082923D105E01C
:1014F0005C4D056022E05B4D05601FE0544D6D685A
:1015000005F47012524D6D6805F48034022505EB28
:1015100092421CB9544D554305600BE04C4D6D682B
:1015200005F400351DB1504D5543056002E04D4DA9
:101530005543056002E04B4D056000BF00BF444DC0
:101540006D6805F0F0010909484D6B5C0568DD40E8
:1015500045603F4D6D6805F4E061090A434D6B5CE1
:101560004568DD4085603A4D6D6805F46051C90AF3
:101570003E4D6B5C4568DD40C560354D6D6805F4DA
:101580004041890B3A4D6B5CC568B5FBF3F50561CD
:1015900030BD29B12E4A526902432D4B5A6104E0F5
:1015A0002B4A526982432A4B5A61704729B1284A13
:1015B00092690243264B9A6104E0254A926982436C
:1015C000234B9A61704729B1214AD2690243204BCB
:1015D000DA6104E01E4AD26982431D4BDA6170472A
:1015E00029B11B4AD2680243194BDA6004E0184A59
:1015F000D2688243164BDA60704729B1144A1269E7
:101600000243134B1A6104E0114A12698243104BE2
:101610001A61704712494039086070470F49C86421
:1016200070470B49C87170470948406A40F08070A4
:1016300007494862704701460020054A92680A40FF
:101640000AB1012000E0002070470149887270470C
:10165000001002400000FFF8FFFFF6FE00004242CB
:101660008004424200127A0000093D008000002000
:1016700090000020704770477047754600F02CF8C6
:10168000AE4605006946534620F00700854618B06F
:1016900020B5FFF7C7F9BDE820404FF000064FF036
:1016A00000074FF000084FF0000B21F00701AC4697
:1016B000ACE8C009ACE8C009ACE8C009ACE8C009B6
:1016C0008D46704710B50446AFF300802046BDE854
:1016D0001040FEF774BD00000048704794000020E1
:1016E00001491820ABBEFEE726000200704700004B
:1016F00021F00042A2F16052B2F5801F01F00043D8
:1017000028BFD2F17F6C0BD95FEA001C43EAC2020A
:1017100042EB507018BF704728BF20F0010070479F
:10172000B2F5801FBCBF184670474FEA410C1CF54C
:10173000001F02D2084600F0F4BA70B500F0B4F809
:1017400000000089FFF7F6BF4FF00040A0F58000D1
:1017500070470000DFF848C170B51CEA111E1EBFBB
:101760001CEA13159EEA0C0F95EA0C0F00F06F802F
:1017700081EA030423EA4C134EEAD47E21EA4C1199
:1017800041F4801143F48013AE44A1FB024CA0FB52
:101790000365AEF17F7E361955EB0C05A1FB034CBA
:1017A0004CF10003A0FB021C16EB0C06654153F143
:1017B0000003094218BF46F0010613F4007F0BD165
:1017C0004FEA03314FEA0530340341EA155140EA4C
:1017D00016506FF003020AE04FEAC3214FEAC5201A
:1017E000F40241EA555140EA56506FF0020202EB12
:1017F0002E4201EB025585EACE710AD05FEA440C15
:1018000018BF24F0004450F1000041F1000120EA2B
:10181000D47040F2FE7C624500D270BDA84214BF75
:101820004FF080444FF04044002E08BF0024BEF12A
:10183000806FA8BFA1F1C041BDE8704080F28280F6
:101840004FF0000001F1C04101F0004170479EEAF5
:101850000C0F0CEA131518BF95EA0C0F06D04FF0C9
:10186000000081EA030E0EF0004170BD00F01CF88C
:101870008900013E00F007B800F009B84FEA430CB8
:101880005FEA5C5C08D081EA030100F05BB84FEAD4
:10189000410C5FEA5C5CF6D14FF0000001497047F3
:1018A0000000FF070000F87F0EF1020E2EF0030E7D
:1018B0005EF8046B364205D4012A43EB030515F5A7
:1018C000001F12D8012841EB010C1CF5001F0CD899
:1018D0000ED14FEAD17C15F5001F0CEB4C0C0CF12E
:1018E000020C08BF4CEBD37C04E04FF0080C01E085
:1018F0004FEAD37C0CEB4C0526FA05F606F00706FA
:10190000B6F1040C06D20EEB860CBDE870404CF02C
:10191000010C6047DFE80CF0090B02024FF00041B8
:101920004FF00000A1F5002170BD194610460128B6
:1019300051EB010418BFD4F5001484BF002001F05E
:10194000004170BD0808A0F500114FEA3101704751
:1019500043004FEAD30C4FEA3C0C43401FBF400703
:101960000CF1605113F0FE4F70471CF0006F03D173
:1019700000200CF0004170470CF0004343EA507027
:1019800010B540EACC0000F086F900BF00000092DC
:101990004FEA0001FFF7D6BF4FF000414FF00000C3
:1019A000A1F50021704700004FF47F0C1CEAD01213
:1019B0001EBF1CEAD11392EA0C0F93EA0C0F00F041
:1019C000858090EA010F48BF42F4807240F4000C19
:1019D00041F400002CF07F4120F07F4000B58142AF
:1019E000A2EB03020FF2081CACEB504EC0F100005A
:1019F0009EF800E04FEA4E0E00FB0EFC38BF490097
:101A00004FEA2C1C02F5FA020CFB0EF34FEACE1E35
:101A10004FEA112C4FEAC1210EEB635E42EB2242EA
:101A20000EFB0CFC4FEA1C5300FB03114FEA112C78
:101A30004FEA01310EFB0CFC4FEADC4C00FB0C11B1
:101A4000C14228BF09184CEB03335DF804EB10EBDF
:101A5000410143EBC250B2F57C0F38BF704729D526
:101A600012F0F00F1CBF00F1C04000F000407047C2
:101A7000008182838485868788898B8C8D8E8F9167
:101A80009293959697999A9C9D9FA0A2A3A5A7A88B
:101A9000AAACAEB0B2B3B5B7B9BCBEC0C2C5C7C9B7
:101AA000CCCED1D4D7D9DCDFE2E6E9ECF0F3F7FA1B
:101AB000FE0000004FEA400C0CF1807CBCF17E4F30
:101AC00028BF7047B0F1C04000F02BB990EA010F79
:101AD0000CEAD11348BF42F48072624538BF6345B7
:101AE00007D213F47F0F16D080EA010000F0004007
:101AF000704710B500F0CFF8097EFC3E00F005B845
:101B000080EA010000F00040704780EA010000F028
:101B1000004000F006B912F47F0F04BF024870477E
:101B200080EA010000F0FDB80000C07FC10DD1F1D6
:101B30009E0206DB4FEA002343F0004323FA02F043
:101B40007047004207D54FEA4001B1F1FE4F02D283
:101B50004FF00000704710B500F09DF849922480C6
:101B6000002070476FEA200070470000B0FA80F351
:101B700010FA03F2C3F19D030AD0D90501EB12203C
:101B8000530638BF704700F1010008BF20F0010084
:101B9000704700004FF47F0C1CEAD0121EBF1CEAF5
:101BA000D11392EA0C0F93EA0C0F00F0478090EAF1
:101BB000010F48BF42F480724FF0004C4CEA002005
:101BC0004CEA012102EB0302A0FB0113A2F5000283
:101BD000002918BF43F001035B0028BF4FEA33031D
:101BE00042EB22425FEA132C4CEBC2502EBFBCEBFF
:101BF000436FB2F57C0F70474FEA036CBCF1004FA6
:101C000008BF20F00100B2F57C0F38BF70470BD53C
:101C100082F0FF0212F5803FC8BF704700F1C0405C
:101C2000D8BF00F00040704700F5000C5FEA4C0C94
:101C300048BF7047B0F1C04000F073B890EA010FA0
:101C40000CEAD11348BF42F48072624538BF634545
:101C500004D280EA010000F00040704710B500F0A7
:101C60001AF800BF8900013E00F007B800F009B87B
:101C70005FEA410C5FEA1C6C08D080EA010000F0CA
:101C800050B85FEA400C5FEA1C6CF6D14FF00040A0
:101C9000A0F5800070470EF1020E2EF0030E5EF8E4
:101CA000044B244204D44FEA4102B2F17F4F11D8D1
:101CB0004FEA4003B3F17F4F0CD80ED14FEAD07CEE
:101CC000B2F17F4F0CEB4C0C0CF1020C08BF4CEB4B
:101CD000D17C04E04FF0080C01E04FEAD17C0CEB22
:101CE0004C0324FA03F404F00704B4F1040C06D204
:101CF0000EEB840CBDE810404CF0010C6047DFE8AF
:101D00000CF0070802024FF00040A0F5800010BD63
:101D10000846420018BFD2F1807288BF00F0004030
:101D200010BDFF2141EAD050C00570474C1D00088E
:101D300000000020940000006C010008E01D000875
:101D40009400002064060000880100085761746553
:101D5000723A202020202020202025002057617466
:101D600065722050756D70204F4E2100576174656B
:101D7000723A202020202020202025005761746501
:101D8000722050756D70204F464621000000000003
:101D900000A24A0400000000000000000102030449
:101DA0000607080900000000080000000400000009
:101DB000020000000100000001000000020000001D
:101DC0000400000008000000000000000000000007
:101DD00001020304010203040607080902040608BD
:0400000508000131BD
:00000001FF
